{
  "_format": "hh-sol-artifact-1",
  "contractName": "simple",
  "sourceName": "contracts/MyContract.sol",
  "abi": [
    {
      "inputs": [],
      "stateMutability": "nonpayable",
      "type": "constructor"
    },
    {
      "inputs": [],
      "name": "interest",
      "outputs": [
        {
          "internalType": "uint256",
          "name": "",
          "type": "uint256"
        }
      ],
      "stateMutability": "view",
      "type": "function"
    },
    {
      "inputs": [],
      "name": "owner",
      "outputs": [
        {
          "internalType": "address",
          "name": "",
          "type": "address"
        }
      ],
      "stateMutability": "view",
      "type": "function"
    },
    {
      "inputs": [
        {
          "internalType": "address",
          "name": "ad",
          "type": "address"
        }
      ],
      "name": "pay",
      "outputs": [],
      "stateMutability": "payable",
      "type": "function"
    }
  ],
  "bytecode": "0x6080604052600560005534801561001557600080fd5b5033600160006101000a81548173ffffffffffffffffffffffffffffffffffffffff021916908373ffffffffffffffffffffffffffffffffffffffff160217905550610352806100666000396000f3fe6080604052600436106100345760003560e01c80630c11dedd146100395780638da5cb5b14610055578063c392f76614610080575b600080fd5b610053600480360381019061004e9190610214565b6100ab565b005b34801561006157600080fd5b5061006a610185565b6040516100779190610250565b60405180910390f35b34801561008c57600080fd5b506100956101ab565b6040516100a29190610284565b60405180910390f35b600160009054906101000a900473ffffffffffffffffffffffffffffffffffffffff1673ffffffffffffffffffffffffffffffffffffffff163373ffffffffffffffffffffffffffffffffffffffff161461013b576040517f08c379a0000000000000000000000000000000000000000000000000000000008152600401610132906102fc565b60405180910390fd5b8073ffffffffffffffffffffffffffffffffffffffff166108fc349081150290604051600060405180830381858888f19350505050158015610181573d6000803e3d6000fd5b5050565b600160009054906101000a900473ffffffffffffffffffffffffffffffffffffffff1681565b60005481565b600080fd5b600073ffffffffffffffffffffffffffffffffffffffff82169050919050565b60006101e1826101b6565b9050919050565b6101f1816101d6565b81146101fc57600080fd5b50565b60008135905061020e816101e8565b92915050565b60006020828403121561022a576102296101b1565b5b6000610238848285016101ff565b91505092915050565b61024a816101d6565b82525050565b60006020820190506102656000830184610241565b92915050565b6000819050919050565b61027e8161026b565b82525050565b60006020820190506102996000830184610275565b92915050565b600082825260208201905092915050565b7f596f7520617265206e6f74206f776e6572000000000000000000000000000000600082015250565b60006102e660118361029f565b91506102f1826102b0565b602082019050919050565b60006020820190508181036000830152610315816102d9565b905091905056fea2646970667358221220ebc140712bd0fae9b3a224650e787a4f0b4b4729200988fb9febcf10973d9d4e64736f6c63430008110033",
  "linkReferences": {},
  "deployedLinkReferences": {}
}